:020000040800F2
:1000000000500020510D000899090008A1090008BE
:10001000A9090008B1090008B9090008000000009A
:10002000000000000000000000000000C1090008FE
:10003000CD09000800000000D9090008E509000802
:10004000990D0008990D0008990D0008990D0008F8
:10005000990D0008990D0008990D0008990D0008E8
:10006000990D0008990D0008990D0008990D0008D8
:10007000F1090008050A0008990D0008990D00080B
:10008000190A0008990D0008990D0008990D00083B
:10009000990D0008990D0008990D0008990D0008A8
:1000A000990D0008990D0008990D0008990D000898
:1000B000990D0008990D0008990D0008990D000888
:1000C000990D0008990D0008990D0008990D000878
:1000D000990D0008990D0008990D0008990D000868
:1000E000990D0008990D0008990D00080000000006
:1000F0000000000000000000000000000000000000
:0C01000000000000000000005FF808F1A3
:10010C0010B5054C237833B9044B13B10448AFF345
:10011C0000800123237010BD0C00002000000000A3
:10012C00F033000808B5034B1BB103490348AFF388
:10013C00008008BD0000000010000020F033000813
:10014C0080F0004002E000BF81F0004142001FBF80
:10015C005FEA410392EA030F7FEA226C7FEA236C89
:10016C006AD04FEA1262D2EB1363C1BFD21841407E
:10017C0048404140B8BF5B42192B88BF704710F014
:10018C00004F40F4000020F07F4018BF404211F0B7
:10019C00004F41F4000121F07F4118BF494292EA1F
:1001AC00030F3FD0A2F1010241FA03FC10EB0C004B
:1001BC00C3F1200301FA03F100F0004302D54942D8
:1001CC0060EB4000B0F5000F13D3B0F1807F06D385
:1001DC0040084FEA310102F10102FE2A51D2B1F17D
:1001EC00004F40EBC25008BF20F0010040EA030072
:1001FC007047490040EB0000013A28BFB0F5000FF2
:10020C00EDD2B0FA80FCACF1080CB2EB0C0200FAA7
:10021C000CF0AABF00EBC25052421843BCBFD040F6
:10022C001843704792F0000F81F4000106BF80F470
:10023C0000000132013BB5E74FEA41037FEA226C33
:10024C0018BF7FEA236C21D092EA030F04D092F0FE
:10025C00000F08BF0846704790EA010F1CBF002032
:10026C00704712F07F4F04D1400028BF40F000408F
:10027C00704712F100723CBF00F50000704700F0AF
:10028C00004343F0FE4040F4000070477FEA2262D6
:10029C0016BF08467FEA23630146420206BF5FEAA7
:1002AC00412390EA010F40F4800070474FF00003A7
:1002BC0004E000BF10F0004348BF40425FEA000C6E
:1002CC0008BF704743F0964301464FF000001CE016
:1002DC0050EA010208BF70474FF000030AE000BF6C
:1002EC0050EA010208BF704711F0004302D54042AA
:1002FC0061EB41015FEA010C02BF8446014600201C
:10030C0043F0B64308BFA3F18053A3F50003BCFA36
:10031C008CF2083AA3EBC25310DB01FA02FC6344E3
:10032C0000FA02FCC2F12002BCF1004F20FA02F2EA
:10033C0043EB020008BF20F00100704702F12002DD
:10034C0001FA02FCC2F1200250EA4C0021FA02F23E
:10035C0043EB020008BF20EADC7070474FF0FF0C43
:10036C001CEAD0521EBF1CEAD15392EA0C0F93EA3E
:10037C000C0F6FD01A4480EA010C400218BF5FEAE0
:10038C0041211ED04FF0006343EA501043EA511153
:10039C00A0FB01310CF00040B1F5000F3EBF49004D
:1003AC0041EAD3715B0040EA010062F17F02FD2A51
:1003BC001DD8B3F1004F40EBC25008BF20F0010034
:1003CC00704790F0000F0CF0004C08BF49024CEA4B
:1003DC00502040EA51207F3AC2BFD2F1FF0340EADD
:1003EC00C250704740F400004FF00003013A5DDC4E
:1003FC0012F1190FDCBF00F000407047C2F100028F
:10040C00410021FA02F1C2F1200200FA02FC5FEA7B
:10041C00310040F1000053EA4C0308BF20EADC70C5
:10042C00704792F0000F00F0004C02BF400010F437
:10043C00000F013AF9D040EA0C0093F0000F01F0E4
:10044C00004C02BF490011F4000F013BF9D041EA06
:10045C000C018FE70CEAD15392EA0C0F18BF93EA08
:10046C000C0F0AD030F0004C18BF31F0004CD8D132
:10047C0080EA010000F00040704790F0000F17BFB9
:10048C0090F0004F084691F0000F91F0004F14D0FF
:10049C0092EA0C0F01D142020FD193EA0C0F03D157
:1004AC004B0218BF084608D180EA010000F000405A
:1004BC0040F0FE4040F40000704740F0FE4040F435
:1004CC00400070474FF0FF0C1CEAD0521EBF1CEAD4
:1004DC00D15392EA0C0F93EA0C0F69D0A2EB0302F2
:1004EC0080EA010C49024FEA402037D04FF080538C
:1004FC0043EA111143EA10130CF000408B4238BF51
:10050C005B0042F17D024FF4000C8B4224BF5B1A5E
:10051C0040EA0C00B3EB510F24BFA3EB510340EAAC
:10052C005C00B3EB910F24BFA3EB910340EA9C005A
:10053C00B3EBD10F24BFA3EBD10340EADC001B01CA
:10054C0018BF5FEA1C1CE0D1FD2A3FF650AF8B426E
:10055C0040EBC25008BF20F0010070470CF0004C7B
:10056C004CEA50207F32C2BFD2F1FF0340EAC250A6
:10057C00704740F400004FF00003013A37E792F067
:10058C00000F00F0004C02BF400010F4000F013AC5
:10059C00F9D040EA0C0093F0000F01F0004C02BFC0
:1005AC00490011F4000F013BF9D041EA0C0195E729
:1005BC000CEAD15392EA0C0F08D142027FF47DAFC2
:1005CC0093EA0C0F7FF470AF084676E793EA0C0FB2
:1005DC0004D14B023FF44CAF08466EE730F0004CB0
:1005EC0018BF31F0004CCAD130F000427FF45CAF40
:1005FC0031F000437FF43CAF5FE700BF42000ED206
:10060C00B2F1FE4F0BD34FF09E03B3EB126209D441
:10061C004FEA002343F0004323FA02F070474FF0F7
:10062C000000704712F1610F01D1420202D14FF06C
:10063C00FF3070474FF00000704700BF80B582B0AC
:10064C0000AF144B5B69134A43F001035361114B28
:10065C005B6903F001037B607B68002200210C20A6
:10066C0000F0F3FC0C2000F00CFD002200210D200A
:10067C0000F0EBFC0D2000F004FD00220021102006
:10068C0000F0E3FC102000F0FCFC00BF0837BD4676
:10069C0080BD00BF0010024080B483B000AF084B97
:1006AC009B69074A43F004039361054B9B6903F074
:1006BC0004037B607B6800BF0C37BD4680BC704771
:1006CC000010024080B582B002AF00F061FB00F078
:1006DC0073F8FFF7E1FFFFF7B1FF00F0A7F91C2358
:1006EC000093002324222F492F4802F07FFC2F4B2C
:1006FC001B78032B32D0032B4DDC012B02D0022BA9
:10070C0016D048E02A4B1B681946274800F094F88D
:10071C00274B1B680133264A1360254B1B681B2B88
:10072C0002DD234B00221A60142000F093FB37E00B
:10073C001F4B1B6819461C4800F07EF81C4B1B68AD
:10074C0001331B4A13601A4B1B681B2B02DD184B21
:10075C0000221A60142000F07DFB21E001211248D8
:10076C0000F0B4F84FF4FA7000F074FB00210E485E
:10077C0000F0ACF84FF4FA7000F06CFB0D4B1B68FA
:10078C0001330C4A13600B4B1B68042B07DD074B22
:10079C0000221A7003E0044800F07CF800E000BF6F
:1007AC00A5E700BF441B0020280000203C1B0020B4
:1007BC00381B0020401B002080B590B000AF07F123
:1007CC00180328220021184602F0DFFD3B1D0022F1
:1007DC001A605A609A60DA601A610223BB610123C5
:1007EC00BB621023FB6202237B630023BB634FF4C9
:1007FC00E013FB6307F11803184600F0CFFF034624
:10080C00002B01D000F08AF80F237B600223BB6021
:10081C000023FB6000233B6100237B613B1D012116
:10082C00184601F03DFA0346002B01D000F076F893
:10083C0000BF4037BD4680BD80B584B000AF786046
:10084C0039600023FB601BE0FA683B689A420DDBC1
:10085C003B680633FA689A4208DCFB6899B2FF23BE
:10086C004FF6E032786802F0A9FC06E0FB6899B21A
:10087C0000230022786802F0A1FCFB680133FB60C6
:10088C00FB681B2BE0DD786802F00CFD00BF103715
:10089C00BD4680BD80B584B000AF78600023FB609E
:1008AC000AE0FB689BB24FF6FF721946786802F0BB
:1008BC0035FCFB680133FB60FB681B2BF1DD7868B2
:1008CC0002F0F0FC00BF1037BD4680BD80B584B08F
:1008DC0000AF786039600023FB6015E03B68002BAB
:1008EC0008D0FB6899B2FF234FF6E032786802F02B
:1008FC0065FC06E0FB6899B200230022786802F0E0
:10090C005DFCFB680133FB60FB681B2BE6DD786844
:10091C0002F0C8FC00BF1037BD4680BD80B400AFEC
:10092C0072B600BF00BFFDE780B485B000AF154BB9
:10093C009B69144A43F001039361124B9B6903F0CA
:10094C000103BB60BB680F4BDB690E4A43F080535D
:10095C00D3610C4BDB6903F080537B607B680A4BE3
:10096C005B68FB60FB6823F0E063FB60FB6843F0B3
:10097C008063FB60044AFB68536000BF1437BD46BC
:10098C0080BC7047001002400000014080B400AFF2
:10099C0000BFFDE780B400AF00BFFDE780B400AF3F
:1009AC0000BFFDE780B400AF00BFFDE780B400AF2F
:1009BC0000BFFDE780B400AF00BFBD4680BC7047F0
:1009CC0080B400AF00BFBD4680BC704780B400AFA0
:1009DC0000BFBD4680BC704780B500AF00F01EFA6A
:1009EC0000BF80BD80B500AF024800F01FFC00BF07
:1009FC0080BD00BF8C1B002080B500AF024800F00A
:100A0C0015FC00BF80BD00BFD01B002080B500AF1F
:100A1C00024800F00BFC00BF80BD00BF141C00207E
:100A2C0080B400AF00BFBD4680BC704780B596B0A7
:100A3C0000AF07F1480300221A605A609A60DA602E
:100A4C0007F1400300221A605A6007F124030022C8
:100A5C001A605A609A60DA601A615A619A613B1D99
:100A6C0020220021184602F090FC4A4B4A4A1A6098
:100A7C00484B00225A60474B00229A60454B4FF678
:100A8C00FF72DA60434B00221A61424B00225A611A
:100A9C00404B00229A613F4801F05EFA0346002B5E
:100AAC0001D0FFF73BFF4FF48053BB6407F14803C1
:100ABC001946384801F05CFD0346002B01D0FFF7C6
:100ACC002DFF344801F097FA0346002B01D0FFF7B5
:100ADC0025FF00233B6400237B6407F14003194688
:100AEC002C4802F0A9F90346002B01D0FFF716FFA2
:100AFC0060237B620023BB620023FB6200233B6309
:100B0C0000237B630023BB630023FB6307F12403F7
:100B1C00002219461F4801F069FC0346002B01D046
:100B2C00FFF7FCFE07F1240304221946194801F0D3
:100B3C005DFC0346002B01D0FFF7F0FE07F1240308
:100B4C0008221946134801F051FC0346002B01D032
:100B5C00FFF7E4FE00237B600023BB600023FB60F7
:100B6C0000233B6100237B614FF40053BB610023E6
:100B7C003B623B1D1946074802F0BCF90346002BAB
:100B8C0001D0FFF7CBFE034800F0A8F800BF5837A0
:100B9C00BD4680BD441B0020002C014080B584B0B4
:100BAC0000AF78607B681B68444A934240F08180B8
:100BBC00434B9B69424A43F400639361404B9B69EE
:100BCC0003F40063FB60FB683E4B3F4A1A603D4BED
:100BDC0010225A603B4B00229A603A4B8022DA601A
:100BEC00384B4FF480721A61364B00225A61354BE8
:100BFC0000229A61334B0022DA61324800F05CFA31
:100C0C000346002B01D0FFF789FE7B682D4A5A6200
:100C1C002C4A7B6853622D4B2D4A1A602B4B1022A9
:100C2C005A602A4B00229A60284B8022DA60274BAC
:100C3C004FF480721A61254B00225A61234B00221B
:100C4C009A61224B0022DA61204800F035FA034603
:100C5C00002B01D0FFF762FE7B681C4A9A621B4A8C
:100C6C007B6853621B4B1C4A1A601A4B10225A6049
:100C7C00184B00229A60174B8022DA60154B4FF408
:100C8C0080721A61134B00225A61124B00229A6136
:100C9C00104B0022DA610F4800F00EFA0346002BCD
:100CAC0001D0FFF73BFE7B680A4ADA62094A7B688F
:100CBC00536200BF1037BD4680BD00BF002C014001
:100CCC00001002408C1B00201C000240D01B002096
:100CDC0030000240141C00206C00024080B588B02B
:100CEC0000AF786007F1100300221A605A609A6016
:100CFC00DA607B681B68104A934218D10F4B9B69D2
:100D0C000E4A43F0040393610C4B9B6903F00403FC
:100D1C00FB60FB684FF4E0633B6102237B610223C1
:100D2C00FB6107F110031946054800F0B3FB00BF47
:100D3C002037BD4680BD00BF002C01400010024092
:100D4C0000080140FFF76CFE0B480C490C4A0023CD
:100D5C0002E0D458C4500433C4188C42F9D3094A65
:100D6C00094C002301E013600432A242FBD302F0D1
:100D7C0015FBFFF7A7FC7047000000200C000020BB
:100D8C00343500080C0000205C1C0020FEE700003D
:100D9C0080B500AF084B1B68074A43F01003136083
:100DAC00032000F047F90F2000F008F8FFF7BCFD16
:100DBC000023184680BD00BF0020024080B582B0E1
:100DCC0000AF7860124B1A68124B1B7819464FF41F
:100DDC007A73B3FBF1F3B2FBF3F3184600F05FF94F
:100DEC000346002B01D001230EE07B680F2B0AD8A1
:100DFC00002279684FF0FF3000F027F9064A7B6833
:100E0C001360002300E0012318460837BD4680BD5F
:100E1C0000000020080000200400002080B400AF77
:100E2C00054B1B781A46054B1B681344034A136089
:100E3C0000BFBD4680BC704708000020581C002035
:100E4C0080B400AF024B1B681846BD4680BC70478F
:100E5C00581C002080B584B000AF7860FFF7F0FF1D
:100E6C00B8607B68FB60FB68B3F1FF3F05D00A4BB1
:100E7C001B781A46FB681344FB6000BFFFF7E0FFCA
:100E8C000246BB68D31AFA689A42F7D800BF00BF73
:100E9C001037BD4680BD00BF0800002080B485B06F
:100EAC0000AF78607B6803F00703FB600C4BDB68DA
:100EBC00BB60BA684FF6FF031340BB60FB681A02B5
:100ECC00BB68134343F0BF6343F40033BB60044A75
:100EDC00BB68D36000BF1437BD4680BC704700BFF1
:100EEC0000ED00E080B400AF044BDB681B0A03F09C
:100EFC0007031846BD4680BC704700BF00ED00E0FC
:100F0C0080B483B000AF0346FB7197F90730002B18
:100F1C000BDBFB7903F01F02064997F907305B09DD
:100F2C00012000FA02F241F8232000BF0C37BD4625
:100F3C0080BC704700E100E080B483B000AF034692
:100F4C003960FB7197F90730002B0ADB3B68DAB28A
:100F5C000C4997F907301201D2B20B4483F80023E5
:100F6C000AE03B68DAB20849FB7903F00F03043B53
:100F7C001201D2B20B441A7600BF0C37BD4680BCAE
:100F8C00704700BF00E100E000ED00E080B489B0E4
:100F9C0000AFF860B9607A60FB6803F00703FB618F
:100FAC00FB69C3F10703042B28BF0423BB61FB6956
:100FBC000433062B02D9FB69033B00E000237B6161
:100FCC004FF0FF32BB6902FA03F3DA43BB681A40F5
:100FDC007B699A404FF0FF317B6901FA03F3D943E7
:100FEC007B680B40134318462437BD4680BC7047C2
:100FFC0080B582B000AF78607B68013BB3F1807F35
:10100C0001D301230FE00A4A7B68013B53600F2197
:10101C004FF0FF30FFF790FF054B00229A60044B16
:10102C0007221A60002318460837BD4680BD00BF52
:10103C0010E000E080B582B000AF78607868FFF710
:10104C002DFF00BF0837BD4680BD80B586B000AF10
:10105C000346B9607A60FB7300237B61FFF742FFA4
:10106C0078617A68B9687869FFF790FF024697F95A
:10107C000F3011461846FFF75FFF00BF1837BD460B
:10108C0080BD80B582B000AF0346FB7197F9073085
:10109C001846FFF735FF00BF0837BD4680BD80B549
:1010AC0082B000AF78607868FFF7A2FF034618465D
:1010BC000837BD4680BD000080B485B000AF7860B5
:1010CC000023FB607B68002B01D1012343E07B688C
:1010DC001B681A46224B1344224AA2FB03231B090A
:1010EC009A007B681A647B681F4ADA637B68022269
:1010FC0083F821207B681B681B68FB60FB6823F46A
:10110C007F5323F03003FB607B685A687B689B68D5
:10111C001A437B68DB681A437B681B691A437B683C
:10112C005B691A437B689B691A437B68DB691343D1
:10113C00FA681343FB607B681B68FA681A607B686B
:10114C0000229A637B68012283F821207B680022AD
:10115C0083F82020002318461437BD4680BC704706
:10116C00F8FFFDBFCDCCCCCC0000024080B586B0E2
:10117C0000AFF860B9607A603B600023FB75FB68D8
:10118C0093F82030012B01D102234BE0FB680122A4
:10119C0083F82020FB6893F82130DBB2012B3AD185
:1011AC00FB68022283F82120FB6800229A63FB680B
:1011BC001B681A68FB681B6822F001021A603B6806
:1011CC007A68B968F86800F037F9FB68DB6A002BBD
:1011DC0008D0FB681B681A68FB681B6842F00E029B
:1011EC001A600FE0FB681B681A68FB681B6822F02A
:1011FC0004021A60FB681B681A68FB681B6842F0E3
:10120C000A021A60FB681B681A68FB681B6842F0CC
:10121C0001021A6005E0FB68002283F820200223FB
:10122C00FB75FB7D18461837BD4680BD80B584B074
:10123C0000AF78607B68DB6B1B68FB607B681B68AE
:10124C001B68BB607B681B6C04229A40FB681340D4
:10125C00002B4FD0BB6803F00403002B4AD07B68F3
:10126C001B681B6803F02003002B07D17B681B68ED
:10127C001A687B681B6822F004021A607B681B6882
:10128C00664A934229D07B681B68654A934222D0F8
:10129C007B681B68634A93421AD07B681B68624A5E
:1012AC00934212D07B681B68604A93420AD07B68D9
:1012BC001B685F4A934202D14FF480030EE04FF05B
:1012CC0080630BE04FF4802308E04FF4804305E08B
:1012DC004FF4806302E0402300E00423554A53603E
:1012EC007B68DB6A002B00F094807B68DB6A786893
:1012FC0098478EE07B681B6C02229A40FB68134077
:10130C00002B56D0BB6803F00203002B51D07B6836
:10131C001B681B6803F02003002B0BD17B681B6838
:10132C001A687B681B6822F00A021A607B6801222B
:10133C0083F821207B681B68384A934229D07B684C
:10134C001B68374A934222D07B681B68354A93420C
:10135C001AD07B681B68344A934212D07B681B6896
:10136C00324A93420AD07B681B68314A934202D1BD
:10137C004FF400130EE04FF000730BE04FF400330A
:10138C0008E04FF4005305E04FF4007302E0202313
:10139C0000E00223274A53607B68002283F8202058
:1013AC007B689B6A002B34D07B689B6A7868984773
:1013BC002FE07B681B6C08229A40FB681340002BC3
:1013CC0028D0BB6803F00803002B23D07B681B6874
:1013DC001A687B681B6822F00E021A607B681A6C14
:1013EC007B68DB6B012101FA02F25A607B680122F7
:1013FC009A637B68012283F821207B68002283F8A2
:10140C0020207B681B6B002B04D07B681B6B7868DF
:10141C00984700BF00BF1037BD4680BD0800024092
:10142C001C000240300002404400024058000240C0
:10143C006C0002400000024080B485B000AFF86040
:10144C00B9607A603B60FB681A6CFB68DB6B01214E
:10145C0001FA02F25A60FB681B683A685A60FB6832
:10146C005B68102B08D1FB681B687A689A60FB6874
:10147C001B68BA68DA6007E0FB681B68BA689A6098
:10148C00FB681B687A68DA6000BF1437BD4680BC05
:10149C007047000080B48BB000AF786039600023D7
:1014AC007B6200233B6269E101227B6A02FA03F34F
:1014BC00FB613B681B68FA691340BB61BA69FB6945
:1014CC009A4240F058813B685B689A4A93425ED0DE
:1014DC00984A934275D8984A934258D0964A934268
:1014EC006FD8964A934252D0944A934269D8944A00
:1014FC0093424CD0924A934263D8924A934246D03C
:10150C00904A93425DD8122B2AD8122B59D801A29B
:10151C0052F823F09B150008751500088715000874
:10152C00C9150008CF150008CF150008CF15000805
:10153C00CF150008CF150008CF150008CF150008EF
:10154C00CF150008CF150008CF150008CF150008DF
:10155C00CF150008CF1500087D150008911500085F
:10156C00794A934213D02CE03B68DB683B6229E05C
:10157C003B68DB6804333B6224E03B68DB68083380
:10158C003B621FE03B68DB680C333B621AE03B6854
:10159C009B68002B02D104233B6213E03B689B68E1
:1015AC00012B05D108233B627B68FA691A6109E0BB
:1015BC0008233B627B68FA695A6103E000233B62B3
:1015CC0000E000BFBB69FF2B01D87B6801E07B68A2
:1015DC0004337B61BB69FF2B02D87B6A9B0002E062
:1015EC007B6A083B9B003B617B691A680F213B6956
:1015FC0001FA03F3DB431A40396A3B6901FA03F33E
:10160C001A437B691A603B685B6803F08053002BBC
:10161C0000F0B1804D4B9B694C4A43F00103936140
:10162C004A4B9B6903F00103BB60BB68484A7B6A69
:10163C009B08023352F82330FB607B6A03F00303F0
:10164C009B000F2202FA03F3DB43FA681340FB60A2
:10165C007B68404A934213D07B683F4A93420DD03B
:10166C007B683E4A934207D07B683D4A934201D146
:10167C00032306E0042304E0022302E0012300E03C
:10168C0000237A6A02F0030292009340FA68134333
:10169C00FB602F497B6A9B080233FA6841F82320D0
:1016AC003B685B6803F48013002B06D02D4B9A68C3
:1016BC002C49BB6913438B6006E02A4B9A68BB69C3
:1016CC00DB43284913408B603B685B6803F40013D1
:1016DC00002B06D0234BDA682249BB691343CB603D
:1016EC0006E0204BDA68BB69DB431E491340CB6034
:1016FC003B685B6803F40033002B06D0194B5A6827
:10170C001849BB6913434B6006E0164B5A68BB691A
:10171C00DB43144913404B603B685B6803F4803334
:10172C00002B21D00F4B1A680E49BB6913430B6079
:10173C0021E000BF00003210000031100000221028
:10174C0000002110000012100000111000100240C7
:10175C000000014000080140000C01400010014055
:10176C0000140140000401400B4B1A68BB69DB43B9
:10177C00094913400B607B6A01337B623B681A6832
:10178C007B6A22FA03F3002B7FF48EAE00BF00BFFE
:10179C002C37BD4680BC70470004014080B586B034
:1017AC0000AF78607B68002B01D1012372E27B686B
:1017BC001B6803F00103002B00F08780924B5B68E1
:1017CC0003F00C03042B0CD08F4B5B6803F00C0361
:1017DC00082B12D18C4B5B6803F48033B3F5803F3C
:1017EC000BD1894B1B6803F40033002B6CD07B6846
:1017FC005B68002B68D101234CE27B685B68B3F516
:10180C00803F06D1804B1B687F4A43F480331360C2
:10181C002EE07B685B68002B0CD17B4B1B687A4AF3
:10182C0023F480331360784B1B68774A23F48023AE
:10183C0013601DE07B685B68B3F5A02F0CD1724B75
:10184C001B68714A43F4802313606F4B1B686E4A0C
:10185C0043F4803313600BE06B4B1B686A4A23F430
:10186C0080331360684B1B68674A23F48023136032
:10187C007B685B68002B13D0FFF7E2FA386108E055
:10188C00FFF7DEFA02463B69D31A642B01D9032316
:10189C0000E25D4B1B6803F40033002BF0D014E026
:1018AC00FFF7CEFA386108E0FFF7CAFA02463B6947
:1018BC00D31A642B01D90323ECE1534B1B6803F4BB
:1018CC000033002BF0D100E000BF7B681B6803F0F5
:1018DC000203002B63D04C4B5B6803F00C03002B12
:1018EC000BD0494B5B6803F00C03082B1CD1464B07
:1018FC005B6803F48033002B16D1434B1B6803F059
:10190C000203002B05D07B681B69012B01D001233E
:10191C00C0E13D4B1B6823F0F8027B685B69DB0080
:10192C00394913430B603AE07B681B69002B20D0CC
:10193C00364B01221A60FFF783FA386108E0FFF793
:10194C007FFA02463B69D31A022B01D90323A1E18A
:10195C002D4B1B6803F00203002BF0D02A4B1B68A5
:10196C0023F0F8027B685B69DB00274913430B60AB
:10197C0015E0264B00221A60FFF762FA386108E086
:10198C00FFF75EFA02463B69D31A022B01D90323F7
:10199C0080E11D4B1B6803F00203002BF0D17B6828
:1019AC001B6803F00803002B3AD07B689B69002B63
:1019BC0019D0174B01221A60FFF742FA386108E080
:1019CC00FFF73EFA02463B69D31A022B01D90323D7
:1019DC0060E10D4B5B6A03F00203002BF0D0012099
:1019EC0000F09CFA1CE00A4B00221A60FFF728FA60
:1019FC0038610FE0FFF724FA02463B69D31A022B39
:101A0C0008D9032346E100BF001002400000424207
:101A1C0080044242924B5B6A03F00203002BE9D133
:101A2C007B681B6803F00403002B00F0A6800023E6
:101A3C00FB758B4BDB6903F08053002B0DD1884B6E
:101A4C00DB69874A43F08053D361854BDB6903F034
:101A5C008053BB60BB680123FB75824B1B6803F48E
:101A6C008073002B18D17F4B1B687E4A43F4807324
:101A7C001360FFF7E5F9386108E0FFF7E1F902467A
:101A8C003B69D31A642B01D9032303E1754B1B6803
:101A9C0003F48073002BF0D07B68DB68012B06D13C
:101AAC006F4B1B6A6E4A43F0010313622DE07B6897
:101ABC00DB68002B0CD16A4B1B6A694A23F00103CB
:101ACC001362674B1B6A664A23F0040313621CE023
:101ADC007B68DB68052B0CD1614B1B6A604A43F0B9
:101AEC00040313625E4B1B6A5D4A43F001031362ED
:101AFC000BE05B4B1B6A5A4A23F001031362584BF1
:101B0C001B6A574A23F0040313627B68DB68002BC3
:101B1C0015D0FFF795F938610AE0FFF791F9024605
:101B2C003B69D31A41F28832934201D90323B1E0C5
:101B3C004B4B1B6A03F00203002BEED014E0FFF7B3
:101B4C007FF938610AE0FFF77BF902463B69D31A4B
:101B5C0041F28832934201D903239BE0404B1B6A2C
:101B6C0003F00203002BEED1FB7D012B05D13C4B86
:101B7C00DB693B4A23F08053D3617B68DB69002B24
:101B8C0000F08780364B5B6803F00C03082B61D0A8
:101B9C007B68DB69022B46D1334B00221A60FFF7BE
:101BAC004FF9386108E0FFF74BF902463B69D31A4D
:101BBC00022B01D903236DE0294B1B6803F0007342
:101BCC00002BF0D17B681B6AB3F5803F08D1244B06
:101BDC005B6823F400327B689B68214913434B609C
:101BEC001F4B5B6823F474127B68196A7B685B6A11
:101BFC000B431B4913434B601B4B01221A60FFF72D
:101C0C001FF9386108E0FFF71BF902463B69D31A4C
:101C1C00022B01D903233DE0114B1B6803F0007329
:101C2C00002BF0D035E0104B00221A60FFF708F9BA
:101C3C00386108E0FFF704F902463B69D31A022B1E
:101C4C0001D9032326E0064B1B6803F00073002B1D
:101C5C00F0D11EE07B68DB69012B07D1012319E071
:101C6C000010024000700040600042420B4B5B6869
:101C7C00FB60FB6803F480327B681B6A9A4206D1D6
:101C8C00FB6803F470127B685B6A9A4201D00123F3
:101C9C0000E0002318461837BD4680BD00100240F6
:101CAC0080B584B000AF786039607B68002B01D1BF
:101CBC000123D0E06A4B1B6803F007033A689A4291
:101CCC0010D9674B1B6823F0070265493B68134327
:101CDC000B60634B1B6803F007033A689A4201D010
:101CEC000123B8E07B681B6803F00203002B20D0B3
:101CFC007B681B6803F00403002B05D0594B5B6811
:101D0C00584A43F4E06353607B681B6803F0080394
:101D1C00002B05D0534B5B68524A43F4605353601D
:101D2C00504B5B6823F0F0027B689B684D49134372
:101D3C004B607B681B6803F00103002B40D07B6871
:101D4C005B68012B07D1474B1B6803F40033002B56
:101D5C0015D101237FE07B685B68022B07D1414BD7
:101D6C001B6803F00073002B09D1012373E03D4B7A
:101D7C001B6803F00203002B01D101236BE0394BEC
:101D8C005B6823F003027B685B68364913434B6046
:101D9C00FFF756F8F8600AE0FFF752F80246FB68C6
:101DAC00D31A41F28832934201D9032353E02D4BCD
:101DBC005B6803F00C027B685B689B009A42EBD17A
:101DCC00274B1B6803F007033A689A4210D2244B46
:101DDC001B6823F0070222493B6813430B60204B1E
:101DEC001B6803F007033A689A4201D0012332E0E2
:101DFC007B681B6803F00403002B08D0194B5B684D
:101E0C0023F4E0627B68DB68164913434B607B6804
:101E1C001B6803F00803002B09D0124B5B6823F4FA
:101E2C0060527B681B69DB000E4913434B6000F06A
:101E3C0021F802460B4B5B681B0903F00F030A49A0
:101E4C00CB5C22FA03F3094A1360094B1B68184652
:101E5C00FEF7B4FF002318461037BD4680BD00BF07
:101E6C00002002400010024008340008000000204E
:101E7C000400002080B487B000AF0023FB60002377
:101E8C00BB6000237B6100237B6000233B611E4B06
:101E9C005B68FB60FB6803F00C03042B02D0082B7F
:101EAC0003D027E0194B3B6127E0FB689B0C03F048
:101EBC000F03174AD35C7B60FB6803F48033002B61
:101ECC0010D0114B5B685B0C03F00103114AD35C1F
:101EDC00BB607B680D4A03FB02F2BB68B2FBF3F3F9
:101EEC007B6104E07B680C4A02FB03F37B617B693A
:101EFC003B6102E0054B3B6100BF3B6918461C3758
:101F0C00BD4680BC704700BF0010024000127A0032
:101F1C00183400082834000800093D0080B485B04E
:101F2C0000AF78600A4B1B680A4AA2FB03235B0ACA
:101F3C007A6802FB03F3FB6000BFFB685A1EFA6071
:101F4C00002BF9D100BF00BF1437BD4680BC7047D1
:101F5C0000000020D34D621080B582B000AF7860D5
:101F6C007B68002B01D1012341E07B6893F83D3065
:101F7C00DBB2002B06D17B68002283F83C2078680A
:101F8C00FEF70CFE7B68022283F83D207B681A6802
:101F9C007B6804331946104600F09EFC7B680122D6
:101FAC0083F846207B68012283F83E207B6801225F
:101FBC0083F83F207B68012283F840207B68012254
:101FCC0083F841207B68012283F842207B68012240
:101FDC0083F843207B68012283F844207B6801222C
:101FEC0083F845207B68012283F83D2000231846A6
:101FFC000837BD4680BD80B582B000AF78607B6885
:10200C00002B01D1012341E07B6893F83D30DBB21A
:10201C00002B06D17B68002283F83C20786800F006
:10202C0039F87B68022283F83D207B681A687B684C
:10203C0004331946104600F04FFC7B68012283F8EC
:10204C0046207B68012283F83E207B68012283F8BE
:10205C003F207B68012283F840207B68012283F8B3
:10206C0041207B68012283F842207B68012283F89F
:10207C0043207B68012283F844207B68012283F88B
:10208C0045207B68012283F83D2000231846083741
:10209C00BD4680BD80B483B000AF786000BF0C3704
:1020AC00BD4680BC7047000080B586B000AFF860BC
:1020BC00B9607A607B800023FB75BB68002B09D16B
:1020CC00FB6893F83E30DBB2022B0CBF01230023DC
:1020DC00DBB222E0BB68042B09D1FB6893F83F30DC
:1020EC00DBB2022B0CBF01230023DBB215E0BB6873
:1020FC00082B09D1FB6893F84030DBB2022B0CBFE4
:10210C0001230023DBB208E0FB6893F84130DBB21B
:10211C00022B0CBF01230023DBB2002B01D00223C6
:10212C0053E1BB68002B09D1FB6893F83E30DBB25E
:10213C00012B0CBF01230023DBB222E0BB68042B74
:10214C0009D1FB6893F83F30DBB2012B0CBF0123A4
:10215C000023DBB215E0BB68082B09D1FB6893F8B0
:10216C004030DBB2012B0CBF01230023DBB208E0B3
:10217C00FB6893F84130DBB2012B0CBF0123002329
:10218C00DBB2002B24D07B68002B02D07B88002B89
:10219C0001D1012319E1BB68002B04D1FB68022299
:1021AC0083F83E2016E0BB68042B04D1FB680222A6
:1021BC0083F83F200EE0BB68082B04D1FB68022299
:1021CC0083F8402006E0FB68022283F8412001E0FE
:1021DC000123FAE0BB680C2B00F2AE8001A252F88E
:1021EC0023F000BF252200084523000845230008E2
:1021FC00452300086D2200084523000845230008EC
:10220C0045230008B5220008452300084523000893
:10221C0045230008FD220008FB685B6A6D4A9A6240
:10222C00FB685B6A6C4ADA62FB685B6A6B4A1A632E
:10223C00FB68586A7968FB681B6834331A467B88DC
:10224C00FEF794FF0346002B01D00123BDE0FB6891
:10225C001B68DA68FB681B6842F40072DA606EE097
:10226C00FB689B6A5B4A9A62FB689B6A5A4ADA6211
:10227C00FB689B6A594A1A63FB68986A7968FB6821
:10228C001B6838331A467B88FEF770FF0346002B19
:10229C0001D0012399E0FB681B68DA68FB681B68B6
:1022AC0042F48062DA604AE0FB68DB6A494A9A626F
:1022BC00FB68DB6A484ADA62FB68DB6A474A1A63E6
:1022CC00FB68D86A7968FB681B683C331A467B88C4
:1022DC00FEF74CFF0346002B01D0012375E0FB6891
:1022EC001B68DA68FB681B6842F40062DA6026E05F
:1022FC00FB681B6B374A9A62FB681B6B364ADA62C7
:10230C00FB681B6B354A1A63FB68186B7968FB68B2
:10231C001B6840331A467B88FEF728FF0346002BC8
:10232C0001D0012351E0FB681B68DA68FB681B686D
:10233C0042F48052DA6002E00123FB7500BFFB7DA2
:10234C00002B41D1FB681B680122B968184600F0CC
:10235C004FFDFB681B68224A934207D1FB681B6840
:10236C005A6CFB681B6842F400425A64FB681B6899
:10237C001B4A93420ED0FB681B68B3F1804F09D007
:10238C00FB681B68174A934204D0FB681B68164A0B
:10239C00934211D1FB681B689B6803F007033B61F8
:1023AC003B69062B10D0FB681B681A68FB681B681E
:1023BC0042F001021A6007E0FB681B681A68FB68B0
:1023CC001B6842F001021A60FB7D18461837BD46A7
:1023DC0080BD00BFD32700087B28000841270008D8
:1023EC00002C0140000400400008004080B586B07D
:1023FC0000AFF860B9607A600023FB75FB6893F856
:10240C003C30012B01D10223AEE0FB68012283F8A2
:10241C003C207B680C2B00F29F8001A252F823F029
:10242C00612400086525000865250008652500085D
:10243C00A12400086525000865250008652500080D
:10244C00E3240008652500086525000865250008BB
:10245C0023250008FB681B68B968184600F0AAFA27
:10246C00FB681B689A69FB681B6842F008029A615A
:10247C00FB681B689A69FB681B6822F004029A616E
:10248C00FB681B689969BB681A69FB681B680A437F
:10249C009A6164E0FB681B68B968184600F0F0FAB2
:1024AC00FB681B689A69FB681B6842F400629A61BE
:1024BC00FB681B689A69FB681B6822F480629A614E
:1024CC00FB681B689969BB681B691A02FB681B686F
:1024DC000A439A6143E0FB681B68B968184600F030
:1024EC0039FBFB681B68DA69FB681B6842F0080261
:1024FC00DA61FB681B68DA69FB681B6822F004026E
:10250C00DA61FB681B68D969BB681A69FB681B68D0
:10251C000A43DA6123E0FB681B68B968184600F0CF
:10252C0083FBFB681B68DA69FB681B6842F400627A
:10253C00DA61FB681B68DA69FB681B6822F480624D
:10254C00DA61FB681B68D969BB681B691A02FB68F6
:10255C001B680A43DA6102E00123FB7500BFFB68CC
:10256C00002283F83C20FB7D18461837BD4680BD01
:10257C0080B584B000AF786039600023FB737B6852
:10258C0093F83C30012B01D10223B4E07B6801228B
:10259C0083F83C207B68022283F83D207B681B6813
:1025AC009B68BB60BB6823F07703BB60BB6823F4FC
:1025BC007F43BB607B681B68BA689A603B681B688A
:1025CC00B3F5005F3ED0B3F5005F00F28780B3F542
:1025DC00805F00F08680B3F5805F7FD8702B1AD0B7
:1025EC00702B7BD8602B50D0602B77D8502B3CD0E5
:1025FC00502B73D8402B58D0402B6FD8302B64D035
:10260C00302B6BD8202B60D0202B67D8002B5CD0C4
:10261C00102B5AD062E07B6818683B6899683B685D
:10262C005A683B68DB6800F0C4FB7B681B689B68DE
:10263C00BB60BB6843F07703BB607B681B68BA6800
:10264C009A604FE07B6818683B6899683B685A68E9
:10265C003B68DB6800F0ADFB7B681B689A687B68A5
:10266C001B6842F480429A603CE07B6818683B68C7
:10267C0059683B68DB681A4600F024FB7B681B68D2
:10268C005021184600F07BFB2CE07B6818683B68F7
:10269C0059683B68DB681A4600F042FB7B681B6894
:1026AC006021184600F06BFB1CE07B6818683B68E7
:1026BC0059683B68DB681A4600F004FB7B681B68B2
:1026CC004021184600F05BFB0CE07B681A683B6805
:1026DC001B681946104600F052FB03E00123FB7304
:1026EC0000E000BF7B68012283F83D207B6800225C
:1026FC0083F83C20FB7B18461037BD4680BD80B468
:10270C0083B000AF786000BF0C37BD4680BC70470B
:10271C0080B483B000AF786000BF0C37BD4680BC7E
:10272C00704780B483B000AF786000BF0C37BD46F3
:10273C0080BC704780B584B000AF78607B685B6A02
:10274C00FB60FB685B6A7A689A4207D1FB680122DE
:10275C001A77FB68012283F83E202AE0FB689B6A0B
:10276C007A689A4207D1FB6802221A77FB68012229
:10277C0083F83F201DE0FB68DB6A7A689A4207D138
:10278C00FB6804221A77FB68012283F8402010E0D2
:10279C00FB681B6B7A689A4207D1FB6808221A7790
:1027AC00FB68012283F8412003E0FB68012283F8D7
:1027BC003D20F868FFF7B5FFFB6800221A7700BFD1
:1027CC001037BD4680BD80B584B000AF78607B68A3
:1027DC005B6AFB60FB685B6A7A689A420BD1FB68A8
:1027EC0001221A777B689B69002B36D1FB6801228A
:1027FC0083F83E2031E0FB689B6A7A689A420BD1E1
:10280C00FB6802221A777B689B69002B25D1FB6839
:10281C00012283F83F2020E0FB68DB6A7A689A4249
:10282C000BD1FB6804221A777B689B69002B14D1AF
:10283C00FB68012283F840200FE0FB681B6B7A6871
:10284C009A420AD1FB6808221A777B689B69002B95
:10285C0003D1FB68012283F84120F868FFF74FFF92
:10286C00FB6800221A7700BF1037BD4680BD80B5CB
:10287C0084B000AF78607B685B6AFB60FB685B6A66
:10288C007A689A4203D1FB6801221A7719E0FB6837
:10289C009B6A7A689A4203D1FB6802221A7710E08D
:1028AC00FB68DB6A7A689A4203D1FB6804221A77C8
:1028BC0007E0FB681B6B7A689A4202D1FB6808221E
:1028CC001A77F868FFF724FFFB6800221A7700BF1D
:1028DC001037BD4680BD000080B485B000AF786075
:1028EC0039607B681B68FB607B682F4A93420BD076
:1028FC007B68B3F1804F07D07B682C4A934203D09E
:10290C007B682B4A934208D1FB6823F07003FB6071
:10291C003B685B68FA681343FB607B68224A93420E
:10292C000BD07B68B3F1804F07D07B681F4A934272
:10293C0003D07B681E4A934208D1FB6823F4407392
:10294C00FB603B68DB68FA681343FB60FB6823F0B1
:10295C0080023B685B691343FB607B68FA681A6012
:10296C003B689A687B68DA623B681A687B689A6293
:10297C007B680D4A934203D13B681A697B681A63E2
:10298C007B6801225A617B681B6903F00103002BF1
:10299C0005D07B681B6923F001027B681A6100BFBC
:1029AC001437BD4680BC7047002C01400004004029
:1029BC000008004080B487B000AF786039607B6855
:1029CC001B6A7B617B681B6A23F001027B681A62BD
:1029DC007B685B683B617B689B69FB60FB6823F0F1
:1029EC007003FB60FB6823F00303FB603B681B6810
:1029FC00FA681343FB607B6923F002037B613B683D
:102A0C009B687A6913437B617B681C4A93420CD1A7
:102A1C007B6923F008037B613B68DB687A691343AD
:102A2C007B617B6923F004037B617B68134A9342CF
:102A3C0011D13B6923F480733B613B6923F4007330
:102A4C003B613B685B693A6913433B613B689B693B
:102A5C003A6913433B617B683A695A607B68FA6850
:102A6C009A613B685A687B685A637B687A691A6218
:102A7C0000BF1C37BD4680BC704700BF002C014016
:102A8C0080B487B000AF786039607B681B6A7B616B
:102A9C007B681B6A23F010027B681A627B685B6898
:102AAC003B617B689B69FB60FB6823F4E043FB6044
:102ABC00FB6823F44073FB603B681B681B02FA68DD
:102ACC001343FB607B6923F020037B613B689B68AD
:102ADC001B017A6913437B617B681D4A93420DD1BC
:102AEC007B6923F080037B613B68DB681B017A699F
:102AFC0013437B617B6923F040037B617B68144A41
:102B0C00934213D13B6923F480633B613B6923F40B
:102B1C0000633B613B685B699B003A6913433B6113
:102B2C003B689B699B003A6913433B617B683A693C
:102B3C005A607B68FA689A613B685A687B689A634A
:102B4C007B687A691A6200BF1C37BD4680BC70472F
:102B5C00002C014080B487B000AF786039607B688E
:102B6C001B6A7B617B681B6A23F480727B681A6228
:102B7C007B685B683B617B68DB69FB60FB6823F00F
:102B8C007003FB60FB6823F00303FB603B681B686E
:102B9C00FA681343FB607B6923F400737B613B6829
:102BAC009B681B027A6913437B617B681D4A9342C5
:102BBC000DD17B6923F400637B613B68DB681B02EE
:102BCC007A6913437B617B6923F480637B617B6847
:102BDC00144A934213D13B6923F480533B613B6904
:102BEC0023F400533B613B685B691B013A69134357
:102BFC003B613B689B691B013A6913433B617B68F2
:102C0C003A695A607B68FA68DA613B685A687B6893
:102C1C00DA637B687A691A6200BF1C37BD4680BCD8
:102C2C00704700BF002C014080B487B000AF7860C3
:102C3C0039607B681B6A3B617B681B6A23F480529A
:102C4C007B681A627B685B687B617B68DB69FB6015
:102C5C00FB6823F4E043FB60FB6823F44073FB60E8
:102C6C003B681B681B02FA681343FB603B6923F447
:102C7C0000533B613B689B681B033A6913433B6100
:102C8C007B680F4A934209D17B6923F480437B61B3
:102C9C003B685B699B017A6913437B617B687A694A
:102CAC005A607B68FA68DA613B685A687B681A6418
:102CBC007B683A691A6200BF1C37BD4680BC7047FE
:102CCC00002C014080B487B000AFF860B9607A6026
:102CDC00FB681B6A7B61FB681B6A23F00102FB68C3
:102CEC001A62FB689B693B613B6923F0F0033B6113
:102CFC007B681B013A6913433B617B6923F00A0330
:102D0C007B617A69BB6813437B61FB683A699A61A2
:102D1C00FB687A691A6200BF1C37BD4680BC7047DD
:102D2C0080B487B000AFF860B9607A60FB681B6A4A
:102D3C007B61FB681B6A23F01002FB681A62FB685C
:102D4C009B693B613B6923F470433B617B681B03CC
:102D5C003A6913433B617B6923F0A0037B61BB6839
:102D6C001B017A6913437B61FB683A699A61FB68C2
:102D7C007A691A6200BF1C37BD4680BC704780B4AC
:102D8C0085B000AF786039607B689B68FB60FB683E
:102D9C0023F07003FB603A68FB68134343F00703AE
:102DAC00FB607B68FA689A6000BF1437BD4680BC34
:102DBC00704780B487B000AFF860B9607A603B6050
:102DCC00FB689B687B617B6923F47F437B613B6879
:102DDC001A027B681A43BB6813437A6913437B61FD
:102DEC00FB687A699A6000BF1C37BD4680BC70478F
:102DFC0080B487B000AFF860B9607A60BB6803F04C
:102E0C001F03012202FA03F37B61FB681A6A7B69D8
:102E1C00DB431A40FB681A62FB681A6ABB6803F052
:102E2C001F03796801FA03F31A43FB681A6200BFA7
:102E3C001C37BD4680BC704780B485B000AF78604D
:102E4C0039607B6893F83C30012B01D1022346E0BA
:102E5C007B68012283F83C207B68022283F83D20AA
:102E6C007B681B685B68FB607B681B689B68BB604E
:102E7C00FB6823F07003FB603B681B68FA68134324
:102E8C00FB607B681B68FA685A607B681B68164A93
:102E9C0093420ED07B681B68B3F1804F09D07B68DE
:102EAC001B68124A934204D07B681B68104A9342F9
:102EBC000CD1BB6823F08003BB603B685B68BA68CD
:102ECC001343BB607B681B68BA689A607B680122FD
:102EDC0083F83D207B68002283F83C2000231846B1
:102EEC001437BD4680BC7047002C014000040040E4
:102EFC000008004080B485B000AF786039600023D2
:102F0C00FB607B6893F83C30012B01D102233DE040
:102F1C007B68012283F83C20FB6823F0FF023B68AE
:102F2C00DB681343FB60FB6823F440723B689B68CF
:102F3C001343FB60FB6823F480623B685B681343BC
:102F4C00FB60FB6823F400623B681B681343FB6067
:102F5C00FB6823F480523B681B691343FB60FB68DE
:102F6C0023F400523B685B691343FB60FB6823F45A
:102F7C0080423B68DB691343FB607B681B68FA6823
:102F8C005A647B68002283F83C20002318461437CF
:102F9C00BD4680BC704780B582B000AF7860786861
:102FAC00FDF758FF00BF0837BD4680BD80B582B025
:102FBC0000AF786002E00120FFF7EDFF7B685B79E2
:102FCC00002BF8D17B6801225A7100BF0837BD462F
:102FDC0080BD80B483B000AF78607B6800225A71EA
:102FEC0000BF0C37BD4680BC7047000080B586B072
:102FFC0000AFF860B96011461A460B46FB801346C9
:10300C007B710023FB75FB68002B7CD0BB68002B0D
:10301C0079D03B8CB3F5807F74D8FB687A791A71C0
:10302C00FB683A8C5A81FB68BA681A60FB881846B0
:10303C00FDF740F9034636491846FDF743FA0346B7
:10304C004FF07E511846FDF77FF803461846FDF702
:10305C00D5FA03463B61FB681B681B683A69DA6268
:10306C00FB681B683A69DA60FB681B681B68002206
:10307C009A623869FDF71AF9034626491846FDF796
:10308C006DF9034624491846FDF71CFA0346184609
:10309C00FDF7B4FA03469AB2FB68DA803869FDF79B
:1030AC0005F903461A491846FDF758F903461A491B
:1030BC001846FDF707FA03461846FDF79FFA034634
:1030CC009AB2FB681A81FB680C334FF440720021F2
:1030DC00184600F05AF9FB6803F5437341F60202F7
:1030EC000021184600F051F9FB681868FB681B7941
:1030FC001946FB6803F543723B8CFEF7D5FF0123A1
:10310C00FB7500E000BFFB7D18461837BD4680BD3F
:10311C00CDCC4C3FCDCCCC3E0000A03F80B485B094
:10312C0000AF78600B467B8013463B800123FB731A
:10313C007B685B897A889A4202D30023FB7334E064
:10314C003B881B0A9BB2DBB223F00703BB733B88A3
:10315C00DB089BB2DBB223F003037B733B88DB0001
:10316C003B737B7B7A881449C85C796813465B0097
:10317C0013440B440C3302461A70BB7B7A880E49FD
:10318C00C85C796813465B0013440B440D3302464C
:10319C001A703B7B7A880849C85C796813465B00D7
:1031AC0013440B440E3302461A70FB7B184614373B
:1031BC00BD4680BC704700BF2C34000880B487B07B
:1031CC0000AFF860084611461A4603467B810B4651
:1031DC003B811346FB710123FB75FB685B897A8984
:1031EC009A4202D30023FB7551E03B891B0A9BB228
:1031FC0003F0F803FA7902FB03F3284A82FB03126B
:10320C001A44D211DB17D31ABB753B89DB089BB26E
:10321C0003F0FC03FA7902FB03F3204A82FB03124E
:10322C001A44D211DB17D31A7B753B89DB00DBB256
:10323C00FA7902FB03F3194A82FB03121A44D211E6
:10324C00DB17D31A3B757B7D7A891549C85CF96805
:10325C0013465B0013440B440C3302461A70BB7DBF
:10326C007A890F49C85CF96813465B0013440B4418
:10327C000D3302461A703B7D7A890949C85CF9689E
:10328C0013465B0013440B440E3302461A70FB7D4D
:10329C0018461C37BD4680BC704700BF81808080BB
:1032AC002C34000890B589B000AF78600123FB770F
:1032BC000123BB617868FFF779FE0023FB823EE0B7
:1032CC0000233B6135E00723FB602CE0FA8A796828
:1032DC0013465B001344CA183B6913440C331B7828
:1032EC001A46FB6842FA03F303F00103002B0AD1E0
:1032FC007B68DB88D9B27A68BB69134403F54373E6
:10330C000A461A7009E07B681B89D9B27A68BB69D6
:10331C00134403F543730A461A70BB690133BB614E
:10332C00FB68013BFB60FB68002BCFDA3B69013388
:10333C003B613B69022BC6DDFB8A0133FB827B6858
:10334C005B89FA8A9A42BBD37B6818687B681B79C5
:10335C001C467B6803F543727B685B891946490000
:10336C000B44DB009BB202339BB22146FEF79CFE62
:10337C000346002B01D00023FB777868FFF729FE6A
:10338C00FB7F18462437BD4690BD0346024493424A
:10339C0000D1704703F8011BF9E7000070B5002657
:1033AC000C4D0D4C641BA410A64209D100F01AF868
:1033BC0000260A4D0A4C641BA410A64205D170BD10
:1033CC0055F8043B98470136EEE755F8043B98470F
:1033DC000136F2E72C3500082C3500082C35000896
:1033EC0030350008F8B500BFF8BC08BC9E467047E5
:0C33FC00F8B500BFF8BC08BC9E46704746
:10340800000000000000000001020304060708098C
:1034180002030405060708090A0B0C0D0E0F10100D
:103428000102000000000000000000000000000091
:10343800000000000000000000000101010101017E
:103448000102020202020203030303030404040448
:1034580005050505060606070707080808090909F6
:103468000A0A0B0B0B0C0C0D0D0D0E0E0F0F101086
:1034780011111212131314151516161717181919F6
:103488001A1B1B1C1D1D1E1F1F2021222223242541
:103498002526272828292A2B2C2D2E2E2F3031326D
:1034A800333435363738393A3B3C3D3E3F4041426C
:1034B800434445464748494A4C4D4E4F5051535452
:1034C800555658595A5B5D5E5F606263646667680B
:1034D8006A6B6D6E6F717274757778797B7C7E809C
:1034E8008183848687898A8C8E8F91929496979906
:1034F8009B9D9EA0A2A3A5A7A9AAACAEB0B2B3B546
:10350800B7B9BBBDBFC1C2C4C6C8CACCCED0D2D45D
:10351800D6D8DADCDEE0E3E5E7E9EBEDEFF1F4F647
:04352800F8FAFCFFB2
:04352C003101000861
:043530000D01000881
:0C35340000127A001000000001000000EE
:0400000508000D5191
:00000001FF
